{
  "_format": "hh-sol-artifact-1",
  "contractName": "ChainewsDapp",
  "sourceName": "Contracts/ChainewsDapp.sol",
  "abi": [
    {
      "inputs": [
        {
          "internalType": "address",
          "name": "_tokenAddr",
          "type": "address"
        }
      ],
      "stateMutability": "nonpayable",
      "type": "constructor"
    },
    {
      "anonymous": false,
      "inputs": [
        {
          "indexed": true,
          "internalType": "address",
          "name": "previousOwner",
          "type": "address"
        },
        {
          "indexed": true,
          "internalType": "address",
          "name": "newOwner",
          "type": "address"
        }
      ],
      "name": "OwnershipTransferred",
      "type": "event"
    },
    {
      "inputs": [
        {
          "internalType": "string",
          "name": "_url",
          "type": "string"
        },
        {
          "internalType": "address",
          "name": "_owner",
          "type": "address"
        },
        {
          "internalType": "bytes32",
          "name": "_hash",
          "type": "bytes32"
        }
      ],
      "name": "addNews",
      "outputs": [],
      "stateMutability": "nonpayable",
      "type": "function"
    },
    {
      "inputs": [],
      "name": "currentNewsId",
      "outputs": [
        {
          "internalType": "uint256",
          "name": "",
          "type": "uint256"
        }
      ],
      "stateMutability": "view",
      "type": "function"
    },
    {
      "inputs": [],
      "name": "currentUserId",
      "outputs": [
        {
          "internalType": "uint256",
          "name": "",
          "type": "uint256"
        }
      ],
      "stateMutability": "view",
      "type": "function"
    },
    {
      "inputs": [
        {
          "internalType": "address",
          "name": "_recipient",
          "type": "address"
        },
        {
          "internalType": "uint256",
          "name": "_amount",
          "type": "uint256"
        }
      ],
      "name": "dropTokens",
      "outputs": [
        {
          "internalType": "bool",
          "name": "",
          "type": "bool"
        }
      ],
      "stateMutability": "nonpayable",
      "type": "function"
    },
    {
      "inputs": [],
      "name": "getNewsById",
      "outputs": [
        {
          "internalType": "uint256[]",
          "name": "",
          "type": "uint256[]"
        }
      ],
      "stateMutability": "view",
      "type": "function"
    },
    {
      "inputs": [
        {
          "internalType": "address",
          "name": "_userAddress",
          "type": "address"
        }
      ],
      "name": "getNewsByIdLength",
      "outputs": [
        {
          "internalType": "uint256",
          "name": "",
          "type": "uint256"
        }
      ],
      "stateMutability": "view",
      "type": "function"
    },
    {
      "inputs": [],
      "name": "getSenderAddress",
      "outputs": [
        {
          "internalType": "address",
          "name": "",
          "type": "address"
        }
      ],
      "stateMutability": "view",
      "type": "function"
    },
    {
      "inputs": [
        {
          "internalType": "address",
          "name": "_userAddress",
          "type": "address"
        }
      ],
      "name": "getUserId",
      "outputs": [
        {
          "internalType": "uint256",
          "name": "",
          "type": "uint256"
        }
      ],
      "stateMutability": "view",
      "type": "function"
    },
    {
      "inputs": [
        {
          "internalType": "uint256",
          "name": "",
          "type": "uint256"
        }
      ],
      "name": "news",
      "outputs": [
        {
          "internalType": "uint256",
          "name": "id",
          "type": "uint256"
        },
        {
          "internalType": "address",
          "name": "owner",
          "type": "address"
        },
        {
          "internalType": "string",
          "name": "url",
          "type": "string"
        },
        {
          "internalType": "bytes32",
          "name": "hash",
          "type": "bytes32"
        },
        {
          "internalType": "uint256",
          "name": "points",
          "type": "uint256"
        }
      ],
      "stateMutability": "view",
      "type": "function"
    },
    {
      "inputs": [],
      "name": "owner",
      "outputs": [
        {
          "internalType": "address",
          "name": "",
          "type": "address"
        }
      ],
      "stateMutability": "view",
      "type": "function"
    },
    {
      "inputs": [],
      "name": "renounceOwnership",
      "outputs": [],
      "stateMutability": "nonpayable",
      "type": "function"
    },
    {
      "inputs": [
        {
          "internalType": "address",
          "name": "_userAddress",
          "type": "address"
        },
        {
          "internalType": "uint256",
          "name": "_points",
          "type": "uint256"
        }
      ],
      "name": "spendPoints",
      "outputs": [],
      "stateMutability": "nonpayable",
      "type": "function"
    },
    {
      "inputs": [],
      "name": "tokenAddr",
      "outputs": [
        {
          "internalType": "address",
          "name": "",
          "type": "address"
        }
      ],
      "stateMutability": "view",
      "type": "function"
    },
    {
      "inputs": [
        {
          "internalType": "address",
          "name": "newOwner",
          "type": "address"
        }
      ],
      "name": "transferOwnership",
      "outputs": [],
      "stateMutability": "nonpayable",
      "type": "function"
    },
    {
      "inputs": [
        {
          "internalType": "uint256",
          "name": "_id",
          "type": "uint256"
        },
        {
          "internalType": "uint256",
          "name": "_newPoints",
          "type": "uint256"
        }
      ],
      "name": "updateNews",
      "outputs": [],
      "stateMutability": "nonpayable",
      "type": "function"
    },
    {
      "inputs": [
        {
          "internalType": "address",
          "name": "newTokenAddr",
          "type": "address"
        }
      ],
      "name": "updateTokenAddress",
      "outputs": [],
      "stateMutability": "nonpayable",
      "type": "function"
    },
    {
      "inputs": [
        {
          "internalType": "address",
          "name": "_userAddress",
          "type": "address"
        },
        {
          "internalType": "uint256",
          "name": "_newPoints",
          "type": "uint256"
        }
      ],
      "name": "updateUser",
      "outputs": [],
      "stateMutability": "nonpayable",
      "type": "function"
    },
    {
      "inputs": [
        {
          "internalType": "address",
          "name": "",
          "type": "address"
        }
      ],
      "name": "users",
      "outputs": [
        {
          "internalType": "uint256",
          "name": "id",
          "type": "uint256"
        },
        {
          "internalType": "uint256",
          "name": "allPoints",
          "type": "uint256"
        },
        {
          "internalType": "uint256",
          "name": "unspentPoints",
          "type": "uint256"
        }
      ],
      "stateMutability": "view",
      "type": "function"
    },
    {
      "inputs": [
        {
          "internalType": "address",
          "name": "beneficiary",
          "type": "address"
        }
      ],
      "name": "withdrawTokens",
      "outputs": [],
      "stateMutability": "nonpayable",
      "type": "function"
    }
  ],
  "bytecode": "0x60806040523480156200001157600080fd5b506040516200207e3803806200207e833981810160405281019062000037919062000388565b620000576200004b6200010160201b60201c565b6200010960201b60201c565b80600260006101000a81548173ffffffffffffffffffffffffffffffffffffffff021916908373ffffffffffffffffffffffffffffffffffffffff16021790555080600160006101000a81548173ffffffffffffffffffffffffffffffffffffffff021916908373ffffffffffffffffffffffffffffffffffffffff160217905550620000ea33620001cd60201b60201c565b6001600381905550600160048190555050620004d5565b600033905090565b60008060009054906101000a900473ffffffffffffffffffffffffffffffffffffffff169050816000806101000a81548173ffffffffffffffffffffffffffffffffffffffff021916908373ffffffffffffffffffffffffffffffffffffffff1602179055508173ffffffffffffffffffffffffffffffffffffffff168173ffffffffffffffffffffffffffffffffffffffff167f8be0079c531659141344cd1fd0a4f28419497f9722a3daafe3b4186f6b6457e060405160405180910390a35050565b620001dd6200026460201b60201c565b600073ffffffffffffffffffffffffffffffffffffffff168173ffffffffffffffffffffffffffffffffffffffff16141562000250576040517f08c379a0000000000000000000000000000000000000000000000000000000008152600401620002479062000441565b60405180910390fd5b62000261816200010960201b60201c565b50565b620002746200010160201b60201c565b73ffffffffffffffffffffffffffffffffffffffff166200029a620002f560201b60201c565b73ffffffffffffffffffffffffffffffffffffffff1614620002f3576040517f08c379a0000000000000000000000000000000000000000000000000000000008152600401620002ea90620004b3565b60405180910390fd5b565b60008060009054906101000a900473ffffffffffffffffffffffffffffffffffffffff16905090565b600080fd5b600073ffffffffffffffffffffffffffffffffffffffff82169050919050565b6000620003508262000323565b9050919050565b620003628162000343565b81146200036e57600080fd5b50565b600081519050620003828162000357565b92915050565b600060208284031215620003a157620003a06200031e565b5b6000620003b18482850162000371565b91505092915050565b600082825260208201905092915050565b7f4f776e61626c653a206e6577206f776e657220697320746865207a65726f206160008201527f6464726573730000000000000000000000000000000000000000000000000000602082015250565b600062000429602683620003ba565b91506200043682620003cb565b604082019050919050565b600060208201905081810360008301526200045c816200041a565b9050919050565b7f4f776e61626c653a2063616c6c6572206973206e6f7420746865206f776e6572600082015250565b60006200049b602083620003ba565b9150620004a88262000463565b602082019050919050565b60006020820190508181036000830152620004ce816200048c565b9050919050565b611b9980620004e56000396000f3fe608060405234801561001057600080fd5b50600436106101215760003560e01c8063715018a6116100ad578063b861729a11610071578063b861729a146102fa578063c76ca86814610318578063c7c61e6314610336578063f2fde38b14610352578063fce9266b1461036e57610121565b8063715018a6146102685780638da5cb5b14610272578063918d242814610290578063a87430ba146102ac578063a980def2146102de57610121565b806349df728c116100f457806349df728c146101c25780635afa34db146101de5780635fbe4d1d146102125780636691461a146102305780636a588f151461024c57610121565b806305077b3b1461012657806328c79b92146101445780632b956ff71461017457806342948e18146101a4575b600080fd5b61012e61039e565b60405161013b91906110a0565b60405180910390f35b61015e6004803603810190610159919061112d565b6103a4565b60405161016b91906110a0565b60405180910390f35b61018e6004803603810190610189919061112d565b6103f3565b60405161019b91906110a0565b60405180910390f35b6101ac61043f565b6040516101b99190611169565b60405180910390f35b6101dc60048036038101906101d7919061112d565b610447565b005b6101f860048036038101906101f391906111b0565b6105b4565b60405161020995949392919061128f565b60405180910390f35b61021a610692565b6040516102279190611169565b60405180910390f35b61024a6004803603810190610245919061112d565b6106b8565b005b6102666004803603810190610261919061144a565b610704565b005b610270610918565b005b61027a61092c565b6040516102879190611169565b60405180910390f35b6102aa60048036038101906102a591906114b9565b610955565b005b6102c660048036038101906102c1919061112d565b610a5c565b6040516102d5939291906114f9565b60405180910390f35b6102f860048036038101906102f391906114b9565b610a86565b005b610302610b8d565b60405161030f91906115ee565b60405180910390f35b610320610c25565b60405161032d91906110a0565b60405180910390f35b610350600480360381019061034b9190611610565b610c2b565b005b61036c6004803603810190610367919061112d565b610cb0565b005b610388600480360381019061038391906114b9565b610d34565b604051610395919061166b565b60405180910390f35b60035481565b6000600660008373ffffffffffffffffffffffffffffffffffffffff1673ffffffffffffffffffffffffffffffffffffffff168152602001908152602001600020600101805490509050919050565b6000600660008373ffffffffffffffffffffffffffffffffffffffff1673ffffffffffffffffffffffffffffffffffffffff168152602001908152602001600020600001549050919050565b600033905090565b61044f610e4d565b600160009054906101000a900473ffffffffffffffffffffffffffffffffffffffff1673ffffffffffffffffffffffffffffffffffffffff1663a9059cbb82600160009054906101000a900473ffffffffffffffffffffffffffffffffffffffff1673ffffffffffffffffffffffffffffffffffffffff166370a08231306040518263ffffffff1660e01b81526004016104e99190611169565b60206040518083038186803b15801561050157600080fd5b505afa158015610515573d6000803e3d6000fd5b505050506040513d601f19601f82011682018060405250810190610539919061169b565b6040518363ffffffff1660e01b81526004016105569291906116c8565b602060405180830381600087803b15801561057057600080fd5b505af1158015610584573d6000803e3d6000fd5b505050506040513d601f19601f820116820180604052508101906105a8919061171d565b6105b157600080fd5b50565b60056020528060005260406000206000915090508060000154908060010160009054906101000a900473ffffffffffffffffffffffffffffffffffffffff169080600201805461060390611779565b80601f016020809104026020016040519081016040528092919081815260200182805461062f90611779565b801561067c5780601f106106515761010080835404028352916020019161067c565b820191906000526020600020905b81548152906001019060200180831161065f57829003601f168201915b5050505050908060030154908060040154905085565b600260009054906101000a900473ffffffffffffffffffffffffffffffffffffffff1681565b6106c0610e4d565b80600260006101000a81548173ffffffffffffffffffffffffffffffffffffffff021916908373ffffffffffffffffffffffffffffffffffffffff16021790555050565b61070c610e4d565b600060056000600354815260200190815260200160002090508381600201908051906020019061073d929190610f97565b50828160010160006101000a81548173ffffffffffffffffffffffffffffffffffffffff021916908373ffffffffffffffffffffffffffffffffffffffff1602179055506003548160000181905550600081600401819055508181600301819055506000600660008573ffffffffffffffffffffffffffffffffffffffff1673ffffffffffffffffffffffffffffffffffffffff16815260200190815260200160002060000154141561088e576000600660008573ffffffffffffffffffffffffffffffffffffffff1673ffffffffffffffffffffffffffffffffffffffff168152602001908152602001600020905060405180602001604052806003548152508160010190600161085092919061101d565b506000816002018190555060008160030181905550600454816000018190555060046000815480929190610883906117da565b9190505550506108fa565b600660008473ffffffffffffffffffffffffffffffffffffffff1673ffffffffffffffffffffffffffffffffffffffff16815260200190815260200160002060010160035490806001815401808255809150506001900390600052602060002001600090919091909150555b6003600081548092919061090d906117da565b919050555050505050565b610920610e4d565b61092a6000610ecb565b565b60008060009054906101000a900473ffffffffffffffffffffffffffffffffffffffff16905090565b61095d610e4d565b80600660008473ffffffffffffffffffffffffffffffffffffffff1673ffffffffffffffffffffffffffffffffffffffff1681526020019081526020016000206003015410156109e2576040517f08c379a00000000000000000000000000000000000000000000000000000000081526004016109d99061186f565b60405180910390fd5b6000600660008473ffffffffffffffffffffffffffffffffffffffff1673ffffffffffffffffffffffffffffffffffffffff168152602001908152602001600020905081816003016000828254610a39919061188f565b92505081905550610a5683600a84610a5191906118f2565b610d34565b50505050565b60066020528060005260406000206000915090508060000154908060020154908060030154905083565b610a8e610e4d565b600660008373ffffffffffffffffffffffffffffffffffffffff1673ffffffffffffffffffffffffffffffffffffffff168152602001908152602001600020600201548111610b12576040517f08c379a0000000000000000000000000000000000000000000000000000000008152600401610b0990611995565b60405180910390fd5b6000600660008473ffffffffffffffffffffffffffffffffffffffff1673ffffffffffffffffffffffffffffffffffffffff1681526020019081526020016000209050806002015482610b65919061188f565b816003016000828254610b7891906119b5565b92505081905550818160020181905550505050565b6060600660003373ffffffffffffffffffffffffffffffffffffffff1673ffffffffffffffffffffffffffffffffffffffff168152602001908152602001600020600101805480602002602001604051908101604052809291908181526020018280548015610c1b57602002820191906000526020600020905b815481526020019060010190808311610c07575b5050505050905090565b60045481565b610c33610e4d565b60056000838152602001908152602001600020600401548111610c8b576040517f08c379a0000000000000000000000000000000000000000000000000000000008152600401610c8290611995565b60405180910390fd5b6000600560008481526020019081526020016000209050818160040181905550505050565b610cb8610e4d565b600073ffffffffffffffffffffffffffffffffffffffff168173ffffffffffffffffffffffffffffffffffffffff161415610d28576040517f08c379a0000000000000000000000000000000000000000000000000000000008152600401610d1f90611a7d565b60405180910390fd5b610d3181610ecb565b50565b6000610d3e610e4d565b600073ffffffffffffffffffffffffffffffffffffffff168373ffffffffffffffffffffffffffffffffffffffff161415610d7857600080fd5b600160009054906101000a900473ffffffffffffffffffffffffffffffffffffffff1673ffffffffffffffffffffffffffffffffffffffff1663a9059cbb84670de0b6b3a764000085610dcb9190611a9d565b6040518363ffffffff1660e01b8152600401610de89291906116c8565b602060405180830381600087803b158015610e0257600080fd5b505af1158015610e16573d6000803e3d6000fd5b505050506040513d601f19601f82011682018060405250810190610e3a919061171d565b610e4357600080fd5b6001905092915050565b610e55610f8f565b73ffffffffffffffffffffffffffffffffffffffff16610e7361092c565b73ffffffffffffffffffffffffffffffffffffffff1614610ec9576040517f08c379a0000000000000000000000000000000000000000000000000000000008152600401610ec090611b43565b60405180910390fd5b565b60008060009054906101000a900473ffffffffffffffffffffffffffffffffffffffff169050816000806101000a81548173ffffffffffffffffffffffffffffffffffffffff021916908373ffffffffffffffffffffffffffffffffffffffff1602179055508173ffffffffffffffffffffffffffffffffffffffff168173ffffffffffffffffffffffffffffffffffffffff167f8be0079c531659141344cd1fd0a4f28419497f9722a3daafe3b4186f6b6457e060405160405180910390a35050565b600033905090565b828054610fa390611779565b90600052602060002090601f016020900481019282610fc5576000855561100c565b82601f10610fde57805160ff191683800117855561100c565b8280016001018555821561100c579182015b8281111561100b578251825591602001919060010190610ff0565b5b509050611019919061106a565b5090565b828054828255906000526020600020908101928215611059579160200282015b8281111561105857825182559160200191906001019061103d565b5b509050611066919061106a565b5090565b5b8082111561108357600081600090555060010161106b565b5090565b6000819050919050565b61109a81611087565b82525050565b60006020820190506110b56000830184611091565b92915050565b6000604051905090565b600080fd5b600080fd5b600073ffffffffffffffffffffffffffffffffffffffff82169050919050565b60006110fa826110cf565b9050919050565b61110a816110ef565b811461111557600080fd5b50565b60008135905061112781611101565b92915050565b600060208284031215611143576111426110c5565b5b600061115184828501611118565b91505092915050565b611163816110ef565b82525050565b600060208201905061117e600083018461115a565b92915050565b61118d81611087565b811461119857600080fd5b50565b6000813590506111aa81611184565b92915050565b6000602082840312156111c6576111c56110c5565b5b60006111d48482850161119b565b91505092915050565b600081519050919050565b600082825260208201905092915050565b60005b838110156112175780820151818401526020810190506111fc565b83811115611226576000848401525b50505050565b6000601f19601f8301169050919050565b6000611248826111dd565b61125281856111e8565b93506112628185602086016111f9565b61126b8161122c565b840191505092915050565b6000819050919050565b61128981611276565b82525050565b600060a0820190506112a46000830188611091565b6112b1602083018761115a565b81810360408301526112c3818661123d565b90506112d26060830185611280565b6112df6080830184611091565b9695505050505050565b600080fd5b600080fd5b7f4e487b7100000000000000000000000000000000000000000000000000000000600052604160045260246000fd5b61132b8261122c565b810181811067ffffffffffffffff8211171561134a576113496112f3565b5b80604052505050565b600061135d6110bb565b90506113698282611322565b919050565b600067ffffffffffffffff821115611389576113886112f3565b5b6113928261122c565b9050602081019050919050565b82818337600083830152505050565b60006113c16113bc8461136e565b611353565b9050828152602081018484840111156113dd576113dc6112ee565b5b6113e884828561139f565b509392505050565b600082601f830112611405576114046112e9565b5b81356114158482602086016113ae565b91505092915050565b61142781611276565b811461143257600080fd5b50565b6000813590506114448161141e565b92915050565b600080600060608486031215611463576114626110c5565b5b600084013567ffffffffffffffff811115611481576114806110ca565b5b61148d868287016113f0565b935050602061149e86828701611118565b92505060406114af86828701611435565b9150509250925092565b600080604083850312156114d0576114cf6110c5565b5b60006114de85828601611118565b92505060206114ef8582860161119b565b9150509250929050565b600060608201905061150e6000830186611091565b61151b6020830185611091565b6115286040830184611091565b949350505050565b600081519050919050565b600082825260208201905092915050565b6000819050602082019050919050565b61156581611087565b82525050565b6000611577838361155c565b60208301905092915050565b6000602082019050919050565b600061159b82611530565b6115a5818561153b565b93506115b08361154c565b8060005b838110156115e15781516115c8888261156b565b97506115d383611583565b9250506001810190506115b4565b5085935050505092915050565b600060208201905081810360008301526116088184611590565b905092915050565b60008060408385031215611627576116266110c5565b5b60006116358582860161119b565b92505060206116468582860161119b565b9150509250929050565b60008115159050919050565b61166581611650565b82525050565b6000602082019050611680600083018461165c565b92915050565b60008151905061169581611184565b92915050565b6000602082840312156116b1576116b06110c5565b5b60006116bf84828501611686565b91505092915050565b60006040820190506116dd600083018561115a565b6116ea6020830184611091565b9392505050565b6116fa81611650565b811461170557600080fd5b50565b600081519050611717816116f1565b92915050565b600060208284031215611733576117326110c5565b5b600061174184828501611708565b91505092915050565b7f4e487b7100000000000000000000000000000000000000000000000000000000600052602260045260246000fd5b6000600282049050600182168061179157607f821691505b602082108114156117a5576117a461174a565b5b50919050565b7f4e487b7100000000000000000000000000000000000000000000000000000000600052601160045260246000fd5b60006117e582611087565b91507fffffffffffffffffffffffffffffffffffffffffffffffffffffffffffffffff821415611818576118176117ab565b5b600182019050919050565b7f4e6f7420656e6f75676820706f696e7473000000000000000000000000000000600082015250565b60006118596011836111e8565b915061186482611823565b602082019050919050565b600060208201905081810360008301526118888161184c565b9050919050565b600061189a82611087565b91506118a583611087565b9250828210156118b8576118b76117ab565b5b828203905092915050565b7f4e487b7100000000000000000000000000000000000000000000000000000000600052601260045260246000fd5b60006118fd82611087565b915061190883611087565b925082611918576119176118c3565b5b828204905092915050565b7f596f75206861766520746f2075706461746520706f696e74732077697468206860008201527f69676865722076616c7565207468616e2063757272656e742076616c75650000602082015250565b600061197f603e836111e8565b915061198a82611923565b604082019050919050565b600060208201905081810360008301526119ae81611972565b9050919050565b60006119c082611087565b91506119cb83611087565b9250827fffffffffffffffffffffffffffffffffffffffffffffffffffffffffffffffff03821115611a00576119ff6117ab565b5b828201905092915050565b7f4f776e61626c653a206e6577206f776e657220697320746865207a65726f206160008201527f6464726573730000000000000000000000000000000000000000000000000000602082015250565b6000611a676026836111e8565b9150611a7282611a0b565b604082019050919050565b60006020820190508181036000830152611a9681611a5a565b9050919050565b6000611aa882611087565b9150611ab383611087565b9250817fffffffffffffffffffffffffffffffffffffffffffffffffffffffffffffffff0483118215151615611aec57611aeb6117ab565b5b828202905092915050565b7f4f776e61626c653a2063616c6c6572206973206e6f7420746865206f776e6572600082015250565b6000611b2d6020836111e8565b9150611b3882611af7565b602082019050919050565b60006020820190508181036000830152611b5c81611b20565b905091905056fea264697066735822122034477cde7b8eb813ec3c2af0988c3972bec23c4c99ae6fb144e85a774f11249b64736f6c63430008090033",
  "linkReferences": {},
  "deployedLinkReferences": {}
}