{
  "_format": "hh-sol-artifact-1",
  "contractName": "YourToken",
  "sourceName": "Contracts/ChainewsDapp.sol",
  "abi": [
    {
      "inputs": [],
      "stateMutability": "nonpayable",
      "type": "constructor"
    },
    {
      "inputs": [
        {
          "internalType": "string",
          "name": "_url",
          "type": "string"
        },
        {
          "internalType": "address",
          "name": "_owner",
          "type": "address"
        },
        {
          "internalType": "bytes32",
          "name": "_hash",
          "type": "bytes32"
        }
      ],
      "name": "addNews",
      "outputs": [],
      "stateMutability": "nonpayable",
      "type": "function"
    },
    {
      "inputs": [
        {
          "internalType": "address",
          "name": "",
          "type": "address"
        }
      ],
      "name": "balanceOf",
      "outputs": [
        {
          "internalType": "uint256",
          "name": "",
          "type": "uint256"
        }
      ],
      "stateMutability": "view",
      "type": "function"
    },
    {
      "inputs": [],
      "name": "checkUser",
      "outputs": [
        {
          "internalType": "uint256",
          "name": "",
          "type": "uint256"
        }
      ],
      "stateMutability": "view",
      "type": "function"
    },
    {
      "inputs": [
        {
          "internalType": "address",
          "name": "_userAddress",
          "type": "address"
        }
      ],
      "name": "getLength",
      "outputs": [
        {
          "internalType": "uint256",
          "name": "",
          "type": "uint256"
        }
      ],
      "stateMutability": "view",
      "type": "function"
    },
    {
      "inputs": [
        {
          "internalType": "uint256",
          "name": "",
          "type": "uint256"
        }
      ],
      "name": "news",
      "outputs": [
        {
          "internalType": "string",
          "name": "url",
          "type": "string"
        },
        {
          "internalType": "address",
          "name": "owner",
          "type": "address"
        },
        {
          "internalType": "uint256",
          "name": "id",
          "type": "uint256"
        },
        {
          "internalType": "uint256",
          "name": "pop",
          "type": "uint256"
        },
        {
          "internalType": "bytes32",
          "name": "hash",
          "type": "bytes32"
        }
      ],
      "stateMutability": "view",
      "type": "function"
    },
    {
      "inputs": [],
      "name": "newsId",
      "outputs": [
        {
          "internalType": "uint256",
          "name": "",
          "type": "uint256"
        }
      ],
      "stateMutability": "view",
      "type": "function"
    },
    {
      "inputs": [],
      "name": "owner",
      "outputs": [
        {
          "internalType": "address",
          "name": "",
          "type": "address"
        }
      ],
      "stateMutability": "view",
      "type": "function"
    },
    {
      "inputs": [
        {
          "internalType": "uint256",
          "name": "_pop",
          "type": "uint256"
        },
        {
          "internalType": "uint256",
          "name": "_id",
          "type": "uint256"
        }
      ],
      "name": "updateNews",
      "outputs": [],
      "stateMutability": "nonpayable",
      "type": "function"
    },
    {
      "inputs": [],
      "name": "userId",
      "outputs": [
        {
          "internalType": "uint256",
          "name": "",
          "type": "uint256"
        }
      ],
      "stateMutability": "view",
      "type": "function"
    },
    {
      "inputs": [
        {
          "internalType": "address",
          "name": "",
          "type": "address"
        }
      ],
      "name": "users",
      "outputs": [
        {
          "internalType": "uint256",
          "name": "id",
          "type": "uint256"
        },
        {
          "internalType": "uint256",
          "name": "population",
          "type": "uint256"
        }
      ],
      "stateMutability": "view",
      "type": "function"
    }
  ],
  "bytecode": "0x608060405234801561001057600080fd5b50336000806101000a81548173ffffffffffffffffffffffffffffffffffffffff021916908373ffffffffffffffffffffffffffffffffffffffff160217905550600180819055506001600281905550610ef88061006f6000396000f3fe608060405234801561001057600080fd5b506004361061009e5760003560e01c80638da5cb5b116100665780638da5cb5b1461015f578063a87430ba1461017d578063c1562547146101ae578063c7c61e63146101cc578063fe611a07146101e85761009e565b806358975919146100a35780635afa34db146100c15780636a588f15146100f55780636af2ea6b1461011157806370a082311461012f575b600080fd5b6100ab610218565b6040516100b891906108d5565b60405180910390f35b6100db60048036038101906100d69190610930565b61021e565b6040516100ec959493929190610a50565b60405180910390f35b61010f600480360381019061010a9190610c37565b6102fc565b005b61011961058b565b60405161012691906108d5565b60405180910390f35b61014960048036038101906101449190610ca6565b610591565b60405161015691906108d5565b60405180910390f35b6101676105a9565b6040516101749190610cd3565b60405180910390f35b61019760048036038101906101929190610ca6565b6105cd565b6040516101a5929190610cee565b60405180910390f35b6101b66105f1565b6040516101c391906108d5565b60405180910390f35b6101e660048036038101906101e19190610d17565b61063b565b005b61020260048036038101906101fd9190610ca6565b6106ee565b60405161020f91906108d5565b60405180910390f35b60025481565b600460205280600052604060002060009150905080600001805461024190610d86565b80601f016020809104026020016040519081016040528092919081815260200182805461026d90610d86565b80156102ba5780601f1061028f576101008083540402835291602001916102ba565b820191906000526020600020905b81548152906001019060200180831161029d57829003601f168201915b5050505050908060010160009054906101000a900473ffffffffffffffffffffffffffffffffffffffff16908060020154908060030154908060040154905085565b60008054906101000a900473ffffffffffffffffffffffffffffffffffffffff1673ffffffffffffffffffffffffffffffffffffffff163373ffffffffffffffffffffffffffffffffffffffff161461038a576040517f08c379a000000000000000000000000000000000000000000000000000000000815260040161038190610e2a565b60405180910390fd5b60006004600060015481526020019081526020016000209050838160000190805190602001906103bb9291906107cc565b50828160010160006101000a81548173ffffffffffffffffffffffffffffffffffffffff021916908373ffffffffffffffffffffffffffffffffffffffff1602179055506001548160020181905550600081600301819055508181600401819055506000600560008573ffffffffffffffffffffffffffffffffffffffff1673ffffffffffffffffffffffffffffffffffffffff16815260200190815260200160002060000154146104d757600560008473ffffffffffffffffffffffffffffffffffffffff1673ffffffffffffffffffffffffffffffffffffffff168152602001908152602001600020600101600154908060018154018082558091505060019003906000526020600020016000909190919091505561056d565b6000600560008573ffffffffffffffffffffffffffffffffffffffff1673ffffffffffffffffffffffffffffffffffffffff168152602001908152602001600020905060405180602001604052806001548152508160010190600161053d929190610852565b506000816002018190555060025481600001819055506002600081548092919061056690610e79565b9190505550505b6001600081548092919061058090610e79565b919050555050505050565b60015481565b60036020528060005260406000206000915090505481565b60008054906101000a900473ffffffffffffffffffffffffffffffffffffffff1681565b60056020528060005260406000206000915090508060000154908060020154905082565b6000600560003373ffffffffffffffffffffffffffffffffffffffff1673ffffffffffffffffffffffffffffffffffffffff16815260200190815260200160002060000154905090565b60008054906101000a900473ffffffffffffffffffffffffffffffffffffffff1673ffffffffffffffffffffffffffffffffffffffff163373ffffffffffffffffffffffffffffffffffffffff16146106c9576040517f08c379a00000000000000000000000000000000000000000000000000000000081526004016106c090610e2a565b60405180910390fd5b6000600460008381526020019081526020016000209050828160030181905550505050565b60008060009054906101000a900473ffffffffffffffffffffffffffffffffffffffff1673ffffffffffffffffffffffffffffffffffffffff163373ffffffffffffffffffffffffffffffffffffffff161461077f576040517f08c379a000000000000000000000000000000000000000000000000000000000815260040161077690610e2a565b60405180910390fd5b600560008373ffffffffffffffffffffffffffffffffffffffff1673ffffffffffffffffffffffffffffffffffffffff168152602001908152602001600020600101805490509050919050565b8280546107d890610d86565b90600052602060002090601f0160209004810192826107fa5760008555610841565b82601f1061081357805160ff1916838001178555610841565b82800160010185558215610841579182015b82811115610840578251825591602001919060010190610825565b5b50905061084e919061089f565b5090565b82805482825590600052602060002090810192821561088e579160200282015b8281111561088d578251825591602001919060010190610872565b5b50905061089b919061089f565b5090565b5b808211156108b85760008160009055506001016108a0565b5090565b6000819050919050565b6108cf816108bc565b82525050565b60006020820190506108ea60008301846108c6565b92915050565b6000604051905090565b600080fd5b600080fd5b61090d816108bc565b811461091857600080fd5b50565b60008135905061092a81610904565b92915050565b600060208284031215610946576109456108fa565b5b60006109548482850161091b565b91505092915050565b600081519050919050565b600082825260208201905092915050565b60005b8381101561099757808201518184015260208101905061097c565b838111156109a6576000848401525b50505050565b6000601f19601f8301169050919050565b60006109c88261095d565b6109d28185610968565b93506109e2818560208601610979565b6109eb816109ac565b840191505092915050565b600073ffffffffffffffffffffffffffffffffffffffff82169050919050565b6000610a21826109f6565b9050919050565b610a3181610a16565b82525050565b6000819050919050565b610a4a81610a37565b82525050565b600060a0820190508181036000830152610a6a81886109bd565b9050610a796020830187610a28565b610a8660408301866108c6565b610a9360608301856108c6565b610aa06080830184610a41565b9695505050505050565b600080fd5b600080fd5b7f4e487b7100000000000000000000000000000000000000000000000000000000600052604160045260246000fd5b610aec826109ac565b810181811067ffffffffffffffff82111715610b0b57610b0a610ab4565b5b80604052505050565b6000610b1e6108f0565b9050610b2a8282610ae3565b919050565b600067ffffffffffffffff821115610b4a57610b49610ab4565b5b610b53826109ac565b9050602081019050919050565b82818337600083830152505050565b6000610b82610b7d84610b2f565b610b14565b905082815260208101848484011115610b9e57610b9d610aaf565b5b610ba9848285610b60565b509392505050565b600082601f830112610bc657610bc5610aaa565b5b8135610bd6848260208601610b6f565b91505092915050565b610be881610a16565b8114610bf357600080fd5b50565b600081359050610c0581610bdf565b92915050565b610c1481610a37565b8114610c1f57600080fd5b50565b600081359050610c3181610c0b565b92915050565b600080600060608486031215610c5057610c4f6108fa565b5b600084013567ffffffffffffffff811115610c6e57610c6d6108ff565b5b610c7a86828701610bb1565b9350506020610c8b86828701610bf6565b9250506040610c9c86828701610c22565b9150509250925092565b600060208284031215610cbc57610cbb6108fa565b5b6000610cca84828501610bf6565b91505092915050565b6000602082019050610ce86000830184610a28565b92915050565b6000604082019050610d0360008301856108c6565b610d1060208301846108c6565b9392505050565b60008060408385031215610d2e57610d2d6108fa565b5b6000610d3c8582860161091b565b9250506020610d4d8582860161091b565b9150509250929050565b7f4e487b7100000000000000000000000000000000000000000000000000000000600052602260045260246000fd5b60006002820490506001821680610d9e57607f821691505b60208210811415610db257610db1610d57565b5b50919050565b7f4f6e6c792074686520636f6e7472616374206f776e65722063616e2063616c6c60008201527f20746869732066756e6374696f6e000000000000000000000000000000000000602082015250565b6000610e14602e83610968565b9150610e1f82610db8565b604082019050919050565b60006020820190508181036000830152610e4381610e07565b9050919050565b7f4e487b7100000000000000000000000000000000000000000000000000000000600052601160045260246000fd5b6000610e84826108bc565b91507fffffffffffffffffffffffffffffffffffffffffffffffffffffffffffffffff821415610eb757610eb6610e4a565b5b60018201905091905056fea26469706673582212209322a67cac9473b3f7973ddebc7f538c8476323c2929660d8c005cbd9721312164736f6c63430008090033",
  "linkReferences": {},
  "deployedLinkReferences": {}
}