{
  "_format": "hh-sol-artifact-1",
  "contractName": "Airdrop",
  "sourceName": "Contracts/Airdrop.sol",
  "abi": [
    {
      "inputs": [
        {
          "internalType": "address",
          "name": "_tokenAddr",
          "type": "address"
        }
      ],
      "stateMutability": "nonpayable",
      "type": "constructor"
    },
    {
      "anonymous": false,
      "inputs": [
        {
          "indexed": true,
          "internalType": "address",
          "name": "previousOwner",
          "type": "address"
        },
        {
          "indexed": true,
          "internalType": "address",
          "name": "newOwner",
          "type": "address"
        }
      ],
      "name": "OwnershipTransferred",
      "type": "event"
    },
    {
      "inputs": [
        {
          "internalType": "address[]",
          "name": "_recipients",
          "type": "address[]"
        },
        {
          "internalType": "uint256[]",
          "name": "_amount",
          "type": "uint256[]"
        }
      ],
      "name": "batchDropTokens",
      "outputs": [
        {
          "internalType": "bool",
          "name": "",
          "type": "bool"
        }
      ],
      "stateMutability": "nonpayable",
      "type": "function"
    },
    {
      "inputs": [
        {
          "internalType": "address",
          "name": "_recipient",
          "type": "address"
        },
        {
          "internalType": "uint256",
          "name": "_amount",
          "type": "uint256"
        }
      ],
      "name": "dropTokens",
      "outputs": [
        {
          "internalType": "bool",
          "name": "",
          "type": "bool"
        }
      ],
      "stateMutability": "nonpayable",
      "type": "function"
    },
    {
      "inputs": [],
      "name": "owner",
      "outputs": [
        {
          "internalType": "address",
          "name": "",
          "type": "address"
        }
      ],
      "stateMutability": "view",
      "type": "function"
    },
    {
      "inputs": [],
      "name": "renounceOwnership",
      "outputs": [],
      "stateMutability": "nonpayable",
      "type": "function"
    },
    {
      "inputs": [],
      "name": "tokenAddr",
      "outputs": [
        {
          "internalType": "address",
          "name": "",
          "type": "address"
        }
      ],
      "stateMutability": "view",
      "type": "function"
    },
    {
      "inputs": [
        {
          "internalType": "address",
          "name": "newOwner",
          "type": "address"
        }
      ],
      "name": "transferOwnership",
      "outputs": [],
      "stateMutability": "nonpayable",
      "type": "function"
    },
    {
      "inputs": [
        {
          "internalType": "address",
          "name": "newTokenAddr",
          "type": "address"
        }
      ],
      "name": "updateTokenAddress",
      "outputs": [],
      "stateMutability": "nonpayable",
      "type": "function"
    },
    {
      "inputs": [
        {
          "internalType": "address",
          "name": "beneficiary",
          "type": "address"
        }
      ],
      "name": "withdrawTokens",
      "outputs": [],
      "stateMutability": "nonpayable",
      "type": "function"
    }
  ],
  "bytecode": "0x60806040523480156200001157600080fd5b506040516200134738038062001347833981810160405281019062000037919062000337565b620000576200004b620000b060201b60201c565b620000b860201b60201c565b80600160006101000a81548173ffffffffffffffffffffffffffffffffffffffff021916908373ffffffffffffffffffffffffffffffffffffffff160217905550620000a9336200017c60201b60201c565b5062000484565b600033905090565b60008060009054906101000a900473ffffffffffffffffffffffffffffffffffffffff169050816000806101000a81548173ffffffffffffffffffffffffffffffffffffffff021916908373ffffffffffffffffffffffffffffffffffffffff1602179055508173ffffffffffffffffffffffffffffffffffffffff168173ffffffffffffffffffffffffffffffffffffffff167f8be0079c531659141344cd1fd0a4f28419497f9722a3daafe3b4186f6b6457e060405160405180910390a35050565b6200018c6200021360201b60201c565b600073ffffffffffffffffffffffffffffffffffffffff168173ffffffffffffffffffffffffffffffffffffffff161415620001ff576040517f08c379a0000000000000000000000000000000000000000000000000000000008152600401620001f690620003f0565b60405180910390fd5b6200021081620000b860201b60201c565b50565b62000223620000b060201b60201c565b73ffffffffffffffffffffffffffffffffffffffff1662000249620002a460201b60201c565b73ffffffffffffffffffffffffffffffffffffffff1614620002a2576040517f08c379a0000000000000000000000000000000000000000000000000000000008152600401620002999062000462565b60405180910390fd5b565b60008060009054906101000a900473ffffffffffffffffffffffffffffffffffffffff16905090565b600080fd5b600073ffffffffffffffffffffffffffffffffffffffff82169050919050565b6000620002ff82620002d2565b9050919050565b6200031181620002f2565b81146200031d57600080fd5b50565b600081519050620003318162000306565b92915050565b60006020828403121562000350576200034f620002cd565b5b6000620003608482850162000320565b91505092915050565b600082825260208201905092915050565b7f4f776e61626c653a206e6577206f776e657220697320746865207a65726f206160008201527f6464726573730000000000000000000000000000000000000000000000000000602082015250565b6000620003d860268362000369565b9150620003e5826200037a565b604082019050919050565b600060208201905081810360008301526200040b81620003c9565b9050919050565b7f4f776e61626c653a2063616c6c6572206973206e6f7420746865206f776e6572600082015250565b60006200044a60208362000369565b9150620004578262000412565b602082019050919050565b600060208201905081810360008301526200047d816200043b565b9050919050565b610eb380620004946000396000f3fe608060405234801561001057600080fd5b50600436106100885760003560e01c8063715018a61161005b578063715018a6146101135780638da5cb5b1461011d578063f2fde38b1461013b578063fce9266b1461015757610088565b8063022cbc361461008d57806349df728c146100bd5780635fbe4d1d146100d95780636691461a146100f7575b600080fd5b6100a760048036038101906100a29190610aaf565b610187565b6040516100b49190610b42565b60405180910390f35b6100d760048036038101906100d29190610b5d565b6102fb565b005b6100e1610468565b6040516100ee9190610b99565b60405180910390f35b610111600480360381019061010c9190610b5d565b61048e565b005b61011b6104da565b005b6101256104ee565b6040516101329190610b99565b60405180910390f35b61015560048036038101906101509190610b5d565b610517565b005b610171600480360381019061016c9190610bb4565b61059b565b60405161017e9190610b42565b60405180910390f35b60006101916106a1565b60005b83518110156102f057600073ffffffffffffffffffffffffffffffffffffffff168482815181106101c8576101c7610bf4565b5b602002602001015173ffffffffffffffffffffffffffffffffffffffff1614156101f157600080fd5b600160009054906101000a900473ffffffffffffffffffffffffffffffffffffffff1673ffffffffffffffffffffffffffffffffffffffff1663a9059cbb85838151811061024257610241610bf4565b5b602002602001015185848151811061025d5761025c610bf4565b5b60200260200101516040518363ffffffff1660e01b8152600401610282929190610c32565b602060405180830381600087803b15801561029c57600080fd5b505af11580156102b0573d6000803e3d6000fd5b505050506040513d601f19601f820116820180604052508101906102d49190610c87565b6102dd57600080fd5b80806102e890610ce3565b915050610194565b506001905092915050565b6103036106a1565b600160009054906101000a900473ffffffffffffffffffffffffffffffffffffffff1673ffffffffffffffffffffffffffffffffffffffff1663a9059cbb82600160009054906101000a900473ffffffffffffffffffffffffffffffffffffffff1673ffffffffffffffffffffffffffffffffffffffff166370a08231306040518263ffffffff1660e01b815260040161039d9190610b99565b60206040518083038186803b1580156103b557600080fd5b505afa1580156103c9573d6000803e3d6000fd5b505050506040513d601f19601f820116820180604052508101906103ed9190610d41565b6040518363ffffffff1660e01b815260040161040a929190610c32565b602060405180830381600087803b15801561042457600080fd5b505af1158015610438573d6000803e3d6000fd5b505050506040513d601f19601f8201168201806040525081019061045c9190610c87565b61046557600080fd5b50565b600160009054906101000a900473ffffffffffffffffffffffffffffffffffffffff1681565b6104966106a1565b80600160006101000a81548173ffffffffffffffffffffffffffffffffffffffff021916908373ffffffffffffffffffffffffffffffffffffffff16021790555050565b6104e26106a1565b6104ec600061071f565b565b60008060009054906101000a900473ffffffffffffffffffffffffffffffffffffffff16905090565b61051f6106a1565b600073ffffffffffffffffffffffffffffffffffffffff168173ffffffffffffffffffffffffffffffffffffffff16141561058f576040517f08c379a000000000000000000000000000000000000000000000000000000000815260040161058690610df1565b60405180910390fd5b6105988161071f565b50565b60006105a56106a1565b600073ffffffffffffffffffffffffffffffffffffffff168373ffffffffffffffffffffffffffffffffffffffff1614156105df57600080fd5b600160009054906101000a900473ffffffffffffffffffffffffffffffffffffffff1673ffffffffffffffffffffffffffffffffffffffff1663a9059cbb84846040518363ffffffff1660e01b815260040161063c929190610c32565b602060405180830381600087803b15801561065657600080fd5b505af115801561066a573d6000803e3d6000fd5b505050506040513d601f19601f8201168201806040525081019061068e9190610c87565b61069757600080fd5b6001905092915050565b6106a96107e3565b73ffffffffffffffffffffffffffffffffffffffff166106c76104ee565b73ffffffffffffffffffffffffffffffffffffffff161461071d576040517f08c379a000000000000000000000000000000000000000000000000000000000815260040161071490610e5d565b60405180910390fd5b565b60008060009054906101000a900473ffffffffffffffffffffffffffffffffffffffff169050816000806101000a81548173ffffffffffffffffffffffffffffffffffffffff021916908373ffffffffffffffffffffffffffffffffffffffff1602179055508173ffffffffffffffffffffffffffffffffffffffff168173ffffffffffffffffffffffffffffffffffffffff167f8be0079c531659141344cd1fd0a4f28419497f9722a3daafe3b4186f6b6457e060405160405180910390a35050565b600033905090565b6000604051905090565b600080fd5b600080fd5b600080fd5b6000601f19601f8301169050919050565b7f4e487b7100000000000000000000000000000000000000000000000000000000600052604160045260246000fd5b61084d82610804565b810181811067ffffffffffffffff8211171561086c5761086b610815565b5b80604052505050565b600061087f6107eb565b905061088b8282610844565b919050565b600067ffffffffffffffff8211156108ab576108aa610815565b5b602082029050602081019050919050565b600080fd5b600073ffffffffffffffffffffffffffffffffffffffff82169050919050565b60006108ec826108c1565b9050919050565b6108fc816108e1565b811461090757600080fd5b50565b600081359050610919816108f3565b92915050565b600061093261092d84610890565b610875565b90508083825260208201905060208402830185811115610955576109546108bc565b5b835b8181101561097e578061096a888261090a565b845260208401935050602081019050610957565b5050509392505050565b600082601f83011261099d5761099c6107ff565b5b81356109ad84826020860161091f565b91505092915050565b600067ffffffffffffffff8211156109d1576109d0610815565b5b602082029050602081019050919050565b6000819050919050565b6109f5816109e2565b8114610a0057600080fd5b50565b600081359050610a12816109ec565b92915050565b6000610a2b610a26846109b6565b610875565b90508083825260208201905060208402830185811115610a4e57610a4d6108bc565b5b835b81811015610a775780610a638882610a03565b845260208401935050602081019050610a50565b5050509392505050565b600082601f830112610a9657610a956107ff565b5b8135610aa6848260208601610a18565b91505092915050565b60008060408385031215610ac657610ac56107f5565b5b600083013567ffffffffffffffff811115610ae457610ae36107fa565b5b610af085828601610988565b925050602083013567ffffffffffffffff811115610b1157610b106107fa565b5b610b1d85828601610a81565b9150509250929050565b60008115159050919050565b610b3c81610b27565b82525050565b6000602082019050610b576000830184610b33565b92915050565b600060208284031215610b7357610b726107f5565b5b6000610b818482850161090a565b91505092915050565b610b93816108e1565b82525050565b6000602082019050610bae6000830184610b8a565b92915050565b60008060408385031215610bcb57610bca6107f5565b5b6000610bd98582860161090a565b9250506020610bea85828601610a03565b9150509250929050565b7f4e487b7100000000000000000000000000000000000000000000000000000000600052603260045260246000fd5b610c2c816109e2565b82525050565b6000604082019050610c476000830185610b8a565b610c546020830184610c23565b9392505050565b610c6481610b27565b8114610c6f57600080fd5b50565b600081519050610c8181610c5b565b92915050565b600060208284031215610c9d57610c9c6107f5565b5b6000610cab84828501610c72565b91505092915050565b7f4e487b7100000000000000000000000000000000000000000000000000000000600052601160045260246000fd5b6000610cee826109e2565b91507fffffffffffffffffffffffffffffffffffffffffffffffffffffffffffffffff821415610d2157610d20610cb4565b5b600182019050919050565b600081519050610d3b816109ec565b92915050565b600060208284031215610d5757610d566107f5565b5b6000610d6584828501610d2c565b91505092915050565b600082825260208201905092915050565b7f4f776e61626c653a206e6577206f776e657220697320746865207a65726f206160008201527f6464726573730000000000000000000000000000000000000000000000000000602082015250565b6000610ddb602683610d6e565b9150610de682610d7f565b604082019050919050565b60006020820190508181036000830152610e0a81610dce565b9050919050565b7f4f776e61626c653a2063616c6c6572206973206e6f7420746865206f776e6572600082015250565b6000610e47602083610d6e565b9150610e5282610e11565b602082019050919050565b60006020820190508181036000830152610e7681610e3a565b905091905056fea26469706673582212207c91c79e0032930c3316c652e4e8028529666f0d23ad482e643dd196347525ae64736f6c63430008090033",
  "linkReferences": {},
  "deployedLinkReferences": {}
}